:020000040800F2
:1000000000000220B9690008B1150008B315000806
:10001000B5150008B7150008B91500080000000064
:10002000000000000000000000000000BB150008F8
:10003000BD15000800000000BF150008C11500082C
:10004000096A0008096A0008096A0008096A0008C4
:10005000096A0008096A0008096A0008096A0008B4
:10006000096A0008096A0008096A0008096A0008A4
:10007000096A0008096A0008096A0008096A000894
:10008000096A0008096A0008096A0008096A000884
:10009000096A0008096A0008096A0008096A000874
:1000A000096A0008096A0008096A0008096A000864
:1000B000096A0008096A0008096A0008096A000854
:1000C000096A0008096A0008096A0008096A000844
:1000D000096A0008096A0008096A0008096A000834
:1000E000096A0008096A0008096A0008096A000824
:1000F000096A0008096A0008096A0008096A000814
:10010000096A0008096A0008096A0008096A000803
:10011000096A0008096A0008096A0008096A0008F3
:10012000DD150008096A0008096A0008096A000864
:10013000096A00080000000000000000096A0008C9
:10014000096A0008096A0008096A0008096A0008C3
:10015000096A0008096A0008096A0008096A0008B3
:10016000096A0008096A0008096A0008096A0008A3
:10017000096A0008096A0008000000000000000089
:08018000096A0008096A000881
:1001900010B5054C237833B9044B13B10448AFF3C1
:1001A00000800123237010BDDC010020000000004E
:1001B0008893000808B5034B1BB103490348AFF30C
:1001C000008008BD00000000E001002088930008C6
:1001D000034613F8012B002AFBD1181A0138704787
:1001E00001F0FF01102A2BDB10F0070F08D010F8E8
:1001F000013B013A8B422DD010F0070F42B3F6D1EC
:10020000F0B441EA012141EA014122F007047FF004
:1002100000070023F0E80256083C85EA010586EA5B
:10022000010685FA47F5A3FA87F586FA47F6A5FA97
:1002300087F68EB9EED1F0BC01F0FF0102F00702A3
:1002400032B110F8013B013A83EA010313B1F8D14E
:100250000020704701387047002D06BF354603382F
:10026000073815F0010F07D1013015F4807F02BF68
:10027000013015F4C03F0130F0BC0138704700BFB9
:1002800081F0004102E000BF83F0004330B54FEA47
:1002900041044FEA430594EA050F08BF90EA020FB4
:1002A0001FBF54EA000C55EA020C7FEA645C7FEA47
:1002B000655C00F0E2804FEA5454D4EB5555B8BF6A
:1002C0006D420CDD2C4480EA020281EA030382EADB
:1002D000000083EA010180EA020281EA0303362D6D
:1002E00088BF30BD11F0004F4FEA01314FF4801C40
:1002F0004CEA113102D0404261EB410113F0004F52
:100300004FEA03334CEA133302D0524263EB430308
:1003100094EA050F00F0A780A4F10104D5F1200EA6
:100320000DDB02FA0EFC22FA05F2801841F1000101
:1003300003FA0EF2801843FA05F359410EE0A5F1D5
:1003400020050EF1200E012A03FA0EFC28BF4CF006
:10035000020C43FA05F3C01851EBE37101F00045BC
:1003600007D54FF0000EDCF1000C7EEB00006EEBC9
:100370000101B1F5801F1BD3B1F5001F0CD3490853
:100380005FEA30004FEA3C0C04F101044FEA4452AA
:1003900012F5800F80F09A80BCF1004F08BF5FEA31
:1003A000500C50F1000041EB045141EA050130BD11
:1003B0005FEA4C0C404141EB010111F4801FA4F1B4
:1003C0000104E9D191F0000F04BF01460020B1FA09
:1003D00081F308BF2033A3F10B03B3F120020CDA41
:1003E0000C3208DD02F1140CC2F10C0201FA0CF01F
:1003F00021FA02F10CE002F11402D8BFC2F1200C84
:1004000001FA02F120FA0CFCDCBF41EA0C01904039
:10041000E41AA2BF01EB0451294330BD6FEA040482
:100420001F3C1CDA0C340EDC04F11404C4F120026D
:1004300020FA04F001FA02F340EA030021FA04F37F
:1004400045EA030130BDC4F10C04C4F1200220FAD6
:1004500002F001FA04F340EA0300294630BD21FA14
:1004600004F0294630BD94F0000F83F4801306BFDA
:1004700081F480110134013D4EE77FEA645C18BFCE
:100480007FEA655C29D094EA050F08BF90EA020F65
:1004900005D054EA000C04BF1946104630BD91EA5D
:1004A000030F1EBF0021002030BD5FEA545C05D160
:1004B0004000494128BF41F0004130BD14F580049F
:1004C0003CBF01F5801130BD01F0004545F0FE4113
:1004D00041F470014FF0000030BD7FEA645C1ABF48
:1004E000194610467FEA655C1CBF0B46024650EA7F
:1004F000013406BF52EA033591EA030F41F40021AB
:1005000030BD00BF90F0000F04BF0021704730B530
:100510004FF4806404F132044FF000054FF0000105
:1005200050E700BF90F0000F04BF0021704730B5C6
:100530004FF4806404F1320410F0004548BF40429B
:100540004FF000013EE700BF42004FEAE2014FEAF0
:1005500031014FEA02701FBF12F07F4393F07F4FCB
:1005600081F06051704732F07F4208BF704793F0CE
:100570007F4F04BF41F40021704730B54FF46074E1
:1005800001F0004521F000411CE700BF50EA0102E4
:1005900008BF704730B54FF000050AE050EA01028D
:1005A00008BF704730B511F0004502D5404261EBFD
:1005B00041014FF4806404F132045FEA915C3FF43E
:1005C000D8AE4FF003025FEADC0C18BF03325FEADB
:1005D000DC0C18BF033202EBDC02C2F1200300FA8C
:1005E00003FC20FA02F001FA03FE40EA0E0021FAB1
:1005F00002F11444BDE600BF70B54FF0FF0C4CF49F
:10060000E06C1CEA11541DBF1CEA135594EA0C0F50
:1006100095EA0C0F00F0DEF82C4481EA030621EA8B
:100620004C5123EA4C5350EA013518BF52EA0335C6
:1006300041F4801143F4801338D0A0FB02CE4FF078
:100640000005E1FB02E506F00042E0FB03E54FF0A8
:100650000006E1FB03569CF0000F18BF4EF0010EA0
:10066000A4F1FF04B6F5007F64F5407404D25FEA9C
:100670004E0E6D4146EB060642EAC62141EA55514F
:100680004FEAC52040EA5E504FEACE2EB4F1FD0C91
:1006900088BFBCF5E06F1ED8BEF1004F08BF5FEA0F
:1006A000500E50F1000041EB045170BD06F00046C1
:1006B00046EA010140EA020081EA0301B4EB5C046E
:1006C000C2BFD4EB0C0541EA045170BD41F4801166
:1006D0004FF0000E013C00F3AB8014F1360FDEBF8B
:1006E000002001F0004170BDC4F10004203C35DA67
:1006F0000C341BDC04F11404C4F1200500FA05F3EA
:1007000020FA04F001FA05F240EA020001F000428A
:1007100021F0004110EBD37021FA04F642EB060100
:100720005EEA430E08BF20EAD37070BDC4F10C042A
:10073000C4F1200500FA04F320FA05F001FA04F2EE
:1007400040EA020001F0004110EBD37041F10001DA
:100750005EEA430E08BF20EAD37070BDC4F12005E5
:1007600000FA05F24EEA020E20FA04F301FA05F24D
:1007700043EA020321FA04F001F0004121FA04F2F5
:1007800020EA020000EBD3705EEA430E08BF20EAC5
:10079000D37070BD94F0000F0FD101F000464000FF
:1007A00041EB010111F4801F08BF013CF7D041EA81
:1007B000060195F0000F18BF704703F00046520085
:1007C00043EB030313F4801F08BF013DF7D043EA56
:1007D0000603704794EA0C0F0CEA135518BF95EA0C
:1007E0000C0F0CD050EA410618BF52EA4306D1D193
:1007F00081EA030101F000414FF0000070BD50EAB2
:10080000410606BF1046194652EA430619D094EA3B
:100810000C0F02D150EA013613D195EA0C0F05D125
:1008200052EA03361CBF104619460AD181EA030179
:1008300001F0004141F0FE4141F470014FF0000031
:1008400070BD41F0FE4141F4780170BD70B54FF0CC
:10085000FF0C4CF4E06C1CEA11541DBF1CEA13554C
:1008600094EA0C0F95EA0C0F00F0A7F8A4EB05042E
:1008700081EA030E52EA03354FEA013100F0888025
:100880004FEA03334FF0805545EA131343EA1263EE
:100890004FEA022245EA111545EA10654FEA0026A3
:1008A0000EF000419D4208BF964244F1FD0404F55C
:1008B000407402D25B084FEA3202B61A65EB0305B8
:1008C0005B084FEA32024FF480104FF4002CB6EB75
:1008D000020E75EB030E22BFB61A754640EA0C00F5
:1008E0005B084FEA3202B6EB020E75EB030E22BF35
:1008F000B61A754640EA5C005B084FEA3202B6EB76
:10090000020E75EB030E22BFB61A754640EA9C0034
:100910005B084FEA3202B6EB020E75EB030E22BF04
:10092000B61A754640EADC0055EA060E18D04FEAC2
:10093000051545EA16754FEA06164FEAC30343EA62
:1009400052734FEAC2025FEA1C1CC0D111F4801F2F
:100950000BD141EA00014FF000004FF0004CB6E728
:1009600011F4801F04BF01430020B4F1FD0C88BFC7
:10097000BCF5E06F3FF6AFAEB5EB030C04BFB6EBD2
:10098000020C5FEA500C50F1000041EB045170BDC5
:100990000EF0004E4EEA113114EB5C04C2BFD4EBF2
:1009A0000C0541EA045170BD41F480114FF0000E76
:1009B000013C90E645EA060E8DE60CEA135594EAF2
:1009C0000C0F08BF95EA0C0F3FF43BAF94EA0C0FF5
:1009D0000AD150EA01347FF434AF95EA0C0F7FF46A
:1009E00025AF104619462CE795EA0C0F06D152EABE
:1009F00003353FF4FDAE1046194622E750EA4106A2
:100A000018BF52EA43067FF4C5AE50EA41047FF4B2
:100A10000DAF52EA43057FF4EBAE12E74FF0FF3C17
:100A200006E000BF4FF0010C02E000BF4FF0010CE8
:100A30004DF804CD4FEA410C7FEA6C5C4FEA430C61
:100A400018BF7FEA6C5C1BD001B050EA410C0CBFB0
:100A500052EA430C91EA030F02BF90EA020F002012
:100A6000704710F1000F91EA030F58BF994208BF79
:100A700090422CBFD8176FEAE37040F00100704736
:100A80004FEA410C7FEA6C5C02D150EA013C07D18D
:100A90004FEA430C7FEA6C5CD6D152EA033CD3D0D8
:100AA0005DF8040B704700BF8446104662468C46D2
:100AB0001946634600E000BF01B5FFF7B7FF002805
:100AC00048BF10F1000F01BD4DF808EDFFF7F4FF2E
:100AD0000CBF012000205DF808FB00BF4DF808EDB9
:100AE000FFF7EAFF34BF012000205DF808FB00BFDC
:100AF0004DF808EDFFF7E0FF94BF012000205DF8FE
:100B000008FB00BF4DF808EDFFF7CEFF94BF0120B2
:100B100000205DF808FB00BF4DF808EDFFF7C4FFAB
:100B200034BF012000205DF808FB00BF4FEA410CF4
:100B30007FEA6C5C02D150EA013C0AD14FEA430CD7
:100B40007FEA6C5C02D152EA033C02D14FF0000014
:100B500070474FF0010070474FEA410212F5001252
:100B600015D211D56FF47873B3EB625212D94FEAF4
:100B7000C12343F0004343EA505311F0004F23FADE
:100B800002F018BF404270474FF00000704750EA33
:100B9000013005D111F0004008BF6FF000407047F0
:100BA0004FF00000704700BF4FEA4102B2F1E0434E
:100BB00024BFB3F5001CDCF1FE5C0DD901F0004C44
:100BC0004FEAC0024CEA5070B2F1004F40EB830094
:100BD00008BF20F00100704711F0804F21D113F1C0
:100BE0003872BCBF01F00040704741F480114FEAF9
:100BF0005252C2F11802C2F1200C10FA0CF320FA82
:100C000002F018BF40F001004FEAC1234FEAD3239E
:100C100003FA0CFC40EA0C0023FA02F34FEA430308
:100C2000CCE77FEA625307D150EA01331EBF4FF091
:100C3000FE4040F44000704701F0004040F0FE40AC
:100C400040F40000704700BF53B94AB9002908BFFB
:100C500000281CBF4FF0FF314FF0FF3000F072B999
:100C6000ADF1080C6DE904CE00F006F8DDF804E003
:100C7000DDE9022304B070472DE9F047089E0446E1
:100C80008846002B4BD18A42154667D9B2FA82F2C8
:100C90004AB1C2F1200701FA02F320FA07F79540A2
:100CA00047EA030894404FEA154E230CB8FBFEF7C1
:100CB0001FFA85FC0EFB178843EA084307FB0CF17B
:100CC000994209D9EB1807F1FF3080F01B81994256
:100CD00040F21881023F2B445B1AA4B2B3FBFEF032
:100CE0000EFB103344EA034400FB0CFCA44509D975
:100CF0002C1900F1FF3380F00781A44540F20481F4
:100D000002382C4440EA0740A4EB0C0400271EB133
:100D1000D4400023C6E900433946BDE8F0878B4242
:100D200009D9002E00F0EB800027C6E90001384603
:100D30003946BDE8F087B3FA83F7002F47D18B42DD
:100D400002D3824200F2FA80841A61EB030301208D
:100D50009846002EE0D0C6E90048DDE702B9FFDE84
:100D6000B2FA82F2002A40F08F80491B4FEA154EFA
:100D70001FFA85F80127B1FBFEFC230C0EFB1C11AA
:100D800043EA014308FB0CF1994207D9EB180CF137
:100D9000FF3002D2994200F2CD808446591AA3B2A4
:100DA000B1FBFEF00EFB101443EA044408FB00F80C
:100DB000A04507D92C1900F1FF3302D2A04500F25B
:100DC000B6801846A4EB080440EA0C409FE7C7F140
:100DD000200CBB4022FA0CFE4EEA030E01FA07F487
:100DE00020FA0CF521FA0CF34FEA1E482543B3FB19
:100DF000F8F92C0C08FB19331FFA8EFA44EA034366
:100E000009FB0AF49C4202FA07F200FA07F10BD937
:100E10001EEB030309F1FF3080F087809C4240F213
:100E20008480A9F1020973441B1BADB2B3FBF8F037
:100E300008FB103345EA034400FB0AFAA24508D92F
:100E40001EEB040400F1FF336BD2A24569D90238CE
:100E5000744440EA0940A0FB0289A4EB0A044C4513
:100E6000C2464B4654D351D0002E69D0B1EB0A058F
:100E700064EB030404FA0CFCFD40FC404CEA05055D
:100E8000C6E90054002747E7C2F1200320FA03F720
:100E9000954001FA02F021FA03F34FEA154E384368
:100EA000010CB3FBFEF71FFA85F80EFB173341EA7E
:100EB000034107FB08F38B4204FA02F407D96918CF
:100EC00007F1FF3C2FD28B422DD9023F2944CB1A88
:100ED00081B2B3FBFEF00EFB103341EA034100FB8D
:100EE00008F38B4207D9691800F1FF3C17D28B42F7
:100EF00015D902382944C91A40EA07473BE7374663
:100F0000304609E70746E7E61846FBE64145ABD21F
:100F1000B8EB020A69EB0E0201381346A4E76046FB
:100F2000E9E7184695E76746D1E781467CE702384E
:100F30002C4447E7ACF1020C2B442FE7384608E776
:100F40003746E9E6704700BF074AD36823F4E063F9
:100F50001B041B0C000200F4E060184340F0BF606B
:100F600040F40030D060704700ED00E030B4174B23
:100F7000DB68C3F30223C3F10704042C28BF042455
:100F80001D1D062D18D9033B4FF0FF3505FA04F45B
:100F900021EA0401994005FA03F322EA0303194305
:100FA00000280BDB0901C9B200F1604000F5614087
:100FB00080F8001330BC70470023E5E700F00F0015
:100FC0000901C9B2024B1954F4E700BF00ED00E07B
:100FD00014ED00E000F01F02400901239340024A93
:100FE00042F82030704700BF00E100E00138B0F166
:100FF000807F0AD2064B5860064AF02182F82310FF
:101000000020986007221A6070470120704700BFD7
:1010100010E000E000ED00E0042805D0054A136868
:1010200023F0040313607047024A136843F004037B
:101030001360704710E000E0704708B5FFF7FCFF51
:1010400008BD0000F0B58BB0002401942A4B1A6B48
:1010500042F004021A631A6B02F004020192019A30
:1010600002941A6B42F001021A631A6B02F0010239
:101070000292029A03941A6B42F002021A631A6BEC
:1010800002F002020392039A04941A6B42F00802DF
:101090001A631B6B03F008030493049B174F22464B
:1010A00046F2CF11384601F0D2FE154D22464FF4DC
:1010B0008051284601F0CBFE46F2CF13059301265E
:1010C00006960794089405A9384601F0D5FD4FF41B
:1010D0008053059306960794089405A9284601F0C5
:1010E000CBFD042305930694079405A9054801F058
:1010F000C3FD0BB0F0BD00BF003802400008024045
:1011000000040240000C024030B405682C6824F44E
:1011100080242C60046863608368402B05D00368DA
:1011200099600368DA6030BC704703689A600368AE
:10113000D960F8E70268D3B2103B0B49A1FB031357
:101140001B090A49C95CC165032B06D822F47F72CA
:1011500022F003028265806D704722F47F7222F0D4
:10116000030204328265F6E7ABAAAAAAA09300089C
:10117000836A826992B9012B0AD01BB1022B01D07C
:1011800000207047C36A13F0807F2CD10020704785
:10119000C36AB3F1C07F28D000207047B2F5005F6A
:1011A00005D0022B29D9032B15D000207047032B23
:1011B00003D8DFE803F01C041C0A00207047C36A50
:1011C00013F0807F15D100207047C36AB3F1C07F50
:1011D00011D000207047C36A13F0807F01D0012036
:1011E00070470020704701207047012070470120A0
:1011F00070470120704701207047012070470000B0
:1012000070B5044602F0A4FD002C5BD00546002317
:1012100084F83430022384F835302268136823F0D0
:101220000103136023681A6812F0010F0AD002F05C
:101230008FFD401B0528F5D920236365032084F822
:10124000350070BD1A68204810406168A2680A43E2
:10125000E1680A4321690A4361690A43A1690A43B3
:10126000E1690A43216A0A430243616A04291ED0E4
:101270001A602668756925F00705636A1D43042B0B
:1012800007D1A36A1D43E36A1BB12046FFF770FF35
:1012900090B975612046FFF74DFFE26D3F23934003
:1012A000836000206065012384F83530C9E7E16A76
:1012B000206B01430A43DBE740236365012084F888
:1012C0003500BEE70120BCE73F8010F038B5856DE2
:1012D00090F83440012C31D0012480F8344090F84B
:1012E0003540E4B2012C04D0002380F834300220D1
:1012F00038BD0446022084F8350000206065204691
:10130000FFF702FFE26D3F239340AB602268136852
:1013100043F0160313602268536943F0800353615E
:10132000236C23B12268136843F00803136022681A
:10133000136843F0010313600020D9E70220D7E7C8
:1013400070B50446866D02F003FD94F83530DBB2CB
:10135000022B06D080236365002384F834300120FB
:1013600070BD05462268136823F0160313602268D7
:10137000536923F080035361236CE3B1226813683F
:1013800023F0080313602268136823F0010313603D
:1013900023681B6813F0010F11D002F0D9FC401B29
:1013A0000528F5D920236365002384F83430032011
:1013B00084F83500D4E7A36C002BDFD1E3E7E26DBE
:1013C0003F239340B360002084F83400012384F865
:1013D0003530C5E7F0B583B0044600230193724B66
:1013E0001D68724BA3FB0535AD0A876D3E68C26D63
:1013F00008239340334210D003681A6812F0040F98
:101400000BD01A6822F004021A60C26D08239340C0
:10141000BB60436D43F001034365E26D01239340DC
:10142000334209D02268526912F0800F04D0BB60A9
:10143000636D43F002036365E26D0423934033421E
:1014400009D02268126812F0020F04D0BB60636DED
:1014500043F004036365E26D10239340334224D0CC
:101460002268126812F0080F1FD0BB6023681A6848
:1014700012F4802F0DD01B6813F4002F04D1236CBD
:101480009BB12046984710E0A36C73B12046984763
:101490000BE01A6812F4807F03D11A6822F0080268
:1014A0001A60236C0BB120469847E26D20239340CD
:1014B000334255D02268126812F0100F50D0BB6032
:1014C00094F83530DBB2052B0ED023681A6812F47D
:1014D000802F33D01B6813F4002F2AD1636C002BAC
:1014E0003ED0204698473BE02268136823F016035D
:1014F00013602268536923F080035361236CA3B106
:101500002268136823F008031360E26D3F239340C1
:10151000BB60002384F83430012384F83530236D18
:10152000002B3FD0204698473CE0A36C002BE7D12E
:10153000EBE7E36BA3B12046984711E01A6812F479
:10154000807F09D11A6822F010021A60002384F803
:101550003430012384F83530E36B0BB120469847D3
:10156000636DFBB1636D13F0010F17D0052384F891
:1015700035302268136823F001031360019B0133A7
:101580000193AB4204D823681B6813F0010FF5D117
:10159000002384F83430012384F83530E36C0BB138
:1015A0002046984703B0F0BD00000020B5814E1BD7
:1015B0007047FEE7FEE7FEE7FEE7704770477047BB
:1015C00008B502F0B9FBFFF738FD00F03BF903F076
:1015D000B9F902F005FA03F0CDFF08BD08B50248DD
:1015E000FFF7F8FE08BD00BF1003002008B503F0A8
:1015F000D5F908BD08B50E480E4B03604FF4827351
:10160000436000238360C360036143614FF4007251
:101610008261C3610362436283620A23C36200F092
:10162000E1F900B908BD5721034801F06BF8F9E76B
:101630001802002000380040A89300080268124BEE
:101640009A4200D0704700B587B00021009103F5A1
:1016500000331A6C42F480421A641B6C03F480431A
:101660000093009B4FF46043019302230293039184
:10167000032304930523059301A9044801F0FCFA10
:1016800007B05DF804FB00BF0038004000040240D2
:1016900030B583B00446114D00224FF480512846E6
:1016A00001F0D5FB64F07F0402A901F8014D0C4C58
:1016B00064230122204600F0D5F9642301220DF1B4
:1016C0000601204600F0BDFB01224FF48051284660
:1016D00001F0BDFB9DF8060003B030BD00040240E0
:1016E0001802002030B583B00446134D00224FF499
:1016F0008051284601F0ABFB64F07F0402A901F899
:10170000014D0E4C64230122204600F0ABF9642306
:1017100001220DF10601204600F093FB9DF80640E2
:10172000240224B201224FF48051284601F08FFB9D
:10173000204603B030BD00BF000402401802002064
:1017400070B584B08DF8071000F07F0004AC04F889
:10175000010D0E4D00224FF48051284601F077FB19
:101760000B4E642301222146304600F07BF96423AE
:1017700001220DF10701304600F074F901224FF407
:101780008051284601F063FB04B070BD00040240A4
:101790001802002008B5002002E07520FFF778FF4E
:1017A0007028FAD10146084805F0CAFD00216B20D7
:1017B000FFF7C6FF00211A20FFF7C2FF18211B20E8
:1017C000FFF7BEFF08BD00BFB493000810B5472067
:1017D000FFF788FF04464820FFF75AFF00B2204376
:1017E00000B2024B9C89001B00B210BD70020020A9
:1017F00010B54720FFF776FF04464820FFF748FF63
:1018000000B204430C4B1B89B3F57A7F0CD30A4911
:10181000CB680A4A82FB0302DB17C3EBA213CB603F
:10182000074B00221A7010BD24B2034AD1680C4441
:10183000D46001331381F6E770020020D34D6210AB
:101840001402002010B52DED028B144B1B7823B130
:10185000FFF7CEFFBDEC028B10BDFFF7B7FF07EE21
:10186000900AB8EEE77A9FED0E8AC7EE087A0D4C23
:10187000C4ED007AFFF7AAFF07EE900AB8EEE77A08
:10188000C7EE087A9FED087A27EE877AD4ED017AC1
:1018900077EE877AC4ED017ADCE700BF14020020FE
:1018A00033338341700200206F12833A044B0022CD
:1018B000DA601A81034A0121117000225A607047D0
:1018C000700200201402002008B50320FFF73CFB43
:1018D000002211466FF00B00FFF748FB0022114673
:1018E0006FF00A00FFF742FB002211466FF009007B
:1018F000FFF73CFB002211466FF00400FFF736FBB8
:10190000002211466FF00300FFF730FB0022114662
:101910006FF00100FFF72AFB00220F214FF0FF308C
:10192000FFF724FB08BDF8B505460F4616461C46D2
:101930003BE02CB102F00CFA069BC01AA04234D353
:101940002A68536823F0E00353606B68B3F5827F25
:101950000BD0AB6AB3F5005F14D0012385F851308A
:10196000002385F85030032027E0AB68B3F5004F23
:1019700002D0B3F5806FECD12A68136823F04003DE
:101980001360E6E72A68136823F400531B041B0C5A
:1019900013602A68136843F400531360DDE70123E2
:1019A000B34209D0B4F1FF3FC3D12B689B6837EA3B
:1019B0000303F4D00023F3E70020F8BD10B582B094
:1019C000044600920B4600228021FFF7ACFF03463D
:1019D00010B9184602B010BD636D43F02003636573
:1019E0000323F6E700283BD010B5044600238362AA
:1019F00090F85130002B2ED0022384F85130226809
:101A0000136823F0400313606368A2681343E2681D
:101A100013432269134362691343A26902F40072FB
:101A20001343E2691343226A1343A16A22680B43FA
:101A30001360638B03F00403616A22680B435360F5
:101A40002268D36923F40063D36100206065012319
:101A500084F8513010BD80F85030FFF7EFFDCBE730
:101A6000012070472DE9F04184B01E4690F85030B7
:101A7000012B00F0C88004460D469046012380F8F3
:101A8000503002F065F9074694F85130DBB2012B73
:101A90000AD00223012284F85120002284F8502029
:101AA000184604B0BDE8F081002D00F0A480B8F124
:101AB000000F00F0A280032384F8513000236365F7
:101AC0002563A4F83480A4F83680A363A387E38752
:101AD00063642364A368B3F5004F1BD023681A68BE
:101AE00012F0400F03D11A6842F040021A60E36816
:101AF000B3F5006F14D063681BB1E38E9BB2012B6A
:101B00003ED1236815F8012B1A73E38E013B9BB27B
:101B1000E38635E02268136843F480431360DDE711
:101B200063681BB1E38E9BB2012B0DD1236835F89E
:101B3000022BDA60E38E013B9BB2E38604E0002EC9
:101B40005DD0B6F1FF3F0FD1E38E9BB27BB323682C
:101B50009A6812F0020FF2D035F8022BDA60E38EA9
:101B6000013B9BB2E386EFE702F0F2F8C01BB04204
:101B7000EAD303238EE7002E43D0B6F1FF3F0FD107
:101B8000E38E9BB29BB123689A6812F0020FF2D0E9
:101B900015F8012B1A73E38E013B9BB2E386EFE746
:101BA00002F0D6F8C01BB042EAD3032372E70097D5
:101BB0003346012202212046FFF7B5FE08B1032378
:101BC00068E73A4631462046FFF7F8FE034618B16B
:101BD0002023636501235DE7A26832B9039222687E
:101BE000D168039192680392039A626D002A3FF4D0
:101BF00051AF01234EE701234CE701234AE70323BA
:101C000048E7032346E702234AE72DE9F04385B07E
:101C100099460C9D90F85030012B00F0108104463D
:101C20000F461646012380F8503002F091F88046A6
:101C300094F85130DBB26268012B15D0B2F5827F87
:101C40000AD00223012284F85120002284F8502077
:101C5000184605B0BDE8F083A268002A40F0E7808E
:101C6000042B01D00223EDE7002F00F0E280002ECC
:101C700000F0E180B9F1000F00F0DF8094F85130FE
:101C8000DBB2012B2BD000236365A663A4F83E9042
:101C9000A4F83C902763A4F83690A4F83490236409
:101CA000636423681A6812F0400F03D11A6842F087
:101CB00040021A60E368B3F5006F14D063681BB18B
:101CC000E38E9BB2012B07D1236817F8012B1A73FF
:101CD000E38E013B9BB2E3864FF0010961E00523EF
:101CE00084F85130CFE763681BB1E38E9BB2012BC0
:101CF00007D1236837F8022BDA60E38E013B9BB2F1
:101D0000E3864FF0010913E0E38F9BB26BB12368C8
:101D10009A6812F0010F08D0DB6826F8023BE38FC7
:101D2000013B9BB2E3874FF00109B5F1FF3F1CD1A6
:101D3000E38E9BB21BB9E38F9BB2002B55D0B9F158
:101D4000000FE1D0E38E9BB2002BDDD023689A68B0
:101D500012F0020FD8D037F8022BDA60E38E013B85
:101D60009BB2E3864FF00009CEE701F0F1FFA0EB54
:101D70000800A842DCD3032364E7E38F9BB26BB176
:101D800023689A6812F0010F08D0DB683370E38F84
:101D9000013B9BB2E38701364FF00109B5F1FF3FEC
:101DA0001BD1E38E9BB213B9E38F9BB2EBB1B9F1B8
:101DB000000FE2D0E38E9BB2002BDED023689A683E
:101DC00012F0020FD9D03A781A73E38E013B9BB21E
:101DD000E38601374FF00009CFE701F0B9FFA0EB30
:101DE0000800A842DDD303232CE7CDF800802B4662
:101DF000012202212046FFF796FD08B1032321E7C7
:101E0000424629462046FFF7D9FD034618B1202354
:101E10006365012316E7A268002A7FF413AF0392DB
:101E20002268D168039192680392039A0AE7022319
:101E300008E7012306E7012304E7012302E7022361
:101E400006E72DE9F04182B004460D4617461E46CE
:101E50004368B3F5827F19D094F85030012B00F01D
:101E6000A280012384F8503001F072FF804694F87C
:101E70005130DBB2012B15D00220012384F8513000
:101E8000002384F8503002B0BDE8F0818368002B55
:101E9000E2D1042380F85130009613460A46FFF73A
:101EA000B4FEF0E7002D74D0002F74D0042384F822
:101EB000513000236365A563A787E7872363A38663
:101EC000E38623646364A368B3F5004F0BD02368F3
:101ED0001A6812F0400F03D11A6842F040021A60EB
:101EE000E3685BB128E02268136823F48043136041
:101EF000EDE7002E51D0B6F1FF3F10D1E38F9BB23A
:101F0000002B31D023689A6812F0010FF1D01B7BAF
:101F100005F8013BE38F013B9BB2E387EEE701F05D
:101F200017FFA0EB0800B042E8D30320A5E7002E7E
:101F300035D0B6F1FF3F0FD1E38F9BB2A3B1236839
:101F40009A6812F0010FF2D0DB6825F8023BE38FAC
:101F5000013B9BB2E387EFE701F0FAFEA0EB08003C
:101F6000B042E9D3032088E76368B3F5827F03D0EA
:101F7000636DB3B9002080E7A368B3F5004F02D0CA
:101F8000B3F5806FF4D12268136823F04003136027
:101F9000EEE7012071E701206FE703206DE70320E2
:101FA0006BE7012069E702206DE7000000B585B00E
:101FB0002D482E4B03604FF4803343604FF0807305
:101FC000836001230361836100220262C2622849A7
:101FD0008162C2600422C2610363436101F0DAFFDF
:101FE00040BB00230093012301930223029369461F
:101FF0001D4802F009FA10BB01230093022301934C
:102000006946194802F000FAF0B90223009303234D
:1020100001936946144802F0F7F9D0B903230093FD
:10202000042301936946104802F0EEF9B0B905B0F7
:102030005DF804FB4B210F4800F064FBD1E755210C
:102040000C4800F05FFBD7E75E210A4800F05AFB1E
:10205000DBE76721074800F055FBDFE77021054803
:1020600000F050FBE3E700BFC80200200020014061
:102070000100000FC493000800B585B01648174B47
:1020800003604FF480334360002383600361836106
:102090000362C362124A8262C3600122C2610363A7
:1020A000426101F077FF68B9042300930123019393
:1020B000022302936946084802F0A6F938B905B030
:1020C0005DF804FB8921074800F01CFBECE7932135
:1020D000044800F017FBF2E78002002000210140D5
:1020E0000100000FC493000830B589B003682A4A84
:1020F000934204D0294A934237D009B030BD0446F8
:1021000000250195264B5A6C42F480725A645B6C30
:1021100003F480730193019B0F2303930323049320
:10212000059503A91F4800F0A7FD1F481F4B03603A
:1021300045608560C5604FF4806303614FF40063C0
:1021400043614FF400538361C5614FF40033036270
:102150004562FFF755F818B9134BA3639C63CCE7AE
:10216000BD21134800F0CEFAF6E7002102910C4B96
:102170005A6C42F400725A645B6C03F4007302936D
:10218000029B1023039303230493059103A905489D
:1021900000F072FDB1E700BF0020014000210140C6
:1021A000003802400000024010030020106402408A
:1021B000C49300082DE9F843044601680A6922F433
:1021C0004052C36813430B610168CA6822F4164287
:1021D00022F00C0283680069034360690343E069ED
:1021E00003431343CB6021684A6922F44072A36918
:1021F00013434B61E369B3F5004F60D02368B84ADD
:10220000934200F0148102F58062934200F00F8146
:1022100001F0F6F800EB800000EB80006568AD008F
:10222000B0FBF5F5AF4FA7FB05356D092E0101F0A9
:10223000E7F800EB800000EB80006568AD00B0FBC4
:10224000F5F901F0DDF800EB800000EB8000656837
:10225000AD00B0FBF5F5A7FB05356D094FF064083F
:1022600008FB15952D013235A7FB05356D0905F0E5
:10227000F005354401F0C4F800EB800000EB80006D
:102280006668B600B0FBF6F601F0BAF800EB800025
:1022900000EB800063689B00B0FBF3F0A7FB00300D
:1022A000400908FB10684FEA081808F13208A7FB3C
:1022B0000837C7F3431723682F449F600DE1236855
:1022C000874A93425BD002F58062934257D001F077
:1022D00097F800EB800000EB800065686D00B0FBB4
:1022E000F5F5804FA7FB05356D092E0101F088F843
:1022F00000EB800000EB800065686D00B0FBF5F935
:1023000001F07EF800EB800000EB800065686D0056
:10231000B0FBF5F5A7FB05356D094FF0640808FB28
:102320001595ED003235A7FB05356D096D0005F4F7
:10233000F875354401F064F800EB800000EB800094
:1023400066687600B0FBF6F601F05AF800EB800004
:1023500000EB800063685B00B0FBF3F3A7FB032393
:102360005B0908FB13684FEAC80808F13208A7FBAD
:102370000837C7F3421723682F449F60ADE001F090
:102380004FF800EB800000EB800065686D00B0FB4B
:10239000F5F5544FA7FB05356D092E0101F040F806
:1023A00000EB800000EB800065686D00B0FBF5F984
:1023B00001F036F800EB800000EB800065686D00EE
:1023C000B0FBF5F5A7FB05356D094FF0640808FB78
:1023D0001595ED003235A7FB05356D096D0005F447
:1023E000F875354401F01CF800EB800000EB80002C
:1023F00066687600B0FBF6F601F012F800EB80009C
:1024000000EB800063685B00B0FBF3F3A7FB0323E2
:102410005B0908FB13684FEAC80808F13208A7FBFC
:102420000837C7F3421723682F449F6055E000F038
:10243000F7FF00EB800000EB80006568AD00B0FBAB
:10244000F5F5284FA7FB05356D092E0100F0E8FFD3
:1024500000EB800000EB80006568AD00B0FBF5F993
:1024600000F0DEFF00EB800000EB80006568AD004F
:10247000B0FBF5F5A7FB05356D094FF0640808FBC7
:1024800015952D013235A7FB05356D0905F0F005D1
:10249000354400F0C5FF00EB800000EB800066686B
:1024A000B600B0FBF6F600F0BBFF00EB800000EBDF
:1024B000800063689B00B0FBF3F0A7FB003040098D
:1024C00008FB10684FEA081808F13208A7FB083724
:1024D000C7F3431723682F449F60BDE8F88300BF0C
:1024E000001001401F85EB512DE9F04105460F46D4
:1024F00016469846069C2B681B6837EA03030CBFF8
:1025000001230023B3421DD1B4F1FF3FF3D02CB11E
:1025100001F01EFCA0EB0800A042ECD92A68D368A9
:1025200023F4D073D3602A68536923F00103536105
:10253000202385F8393085F83A30002385F8383083
:10254000032000E00020BDE8F08158B310B5044638
:1025500090F839300BB3242384F839302268D368DB
:1025600023F40053D3602046FFF724FE226813694A
:1025700023F4904313612268536923F02A035361C3
:102580002268D36843F40053D3600020E063202323
:1025900084F8393084F83A3010BD80F8383001F0D2
:1025A0005FFBD8E7012070472DE9F04182B01E465D
:1025B00090F83930DBB2202B55D104460D469046B9
:1025C000002955D0002A55D090F83830012B53D02F
:1025D000012380F838300023C363212380F8393089
:1025E00001F0B6FB0746A4F82480A4F8268010E08A
:1025F00000963B46002280212046FFF775FF002809
:102600003CD12B882268C3F3080353602369C3B904
:102610000235E38C9BB2B3B1E38C013B9BB2E38404
:10262000A368B3F5805FE3D000963B46002280218B
:102630002046FFF759FF18BB2A7823685A600135F6
:10264000E7E70135E5E700963B46002240212046BA
:10265000FFF74AFF0346A8B9202284F83920002258
:1026600084F8382000E00223184602B0BDE8F0816B
:102670000123F9E70123F7E70223F5E70323F3E753
:102680000323F1E70323EFE700B583B002A901F8C4
:10269000010D01231A460348FFF786FF03B05DF8DA
:1026A00004FB00BF9004002008B5512002F0CAFAD4
:1026B0005B2002F0C7FA0F4B1B680021986804F0FA
:1026C000CFFE18210C4800F0B5FA18210B4800F095
:1026D000B1FA02F0CBF8FFF75DF802F019FA10EE4C
:1026E000100AFDF731FF02460B46054804F028FEAC
:1026F00008BD00BF0C000020C003002070030020B4
:10270000D0930008FEE7000000B595B000220192CA
:10271000284B196C41F0805119641B6C03F08053F5
:102720000193019B0292244B196841F48041196086
:102730001B6803F480430293029B02230893012148
:102740000B9110210C910E930F920822109250229F
:10275000119212930423139308A800F07FFB08BB87
:102760000F23039302210491002305934FF4805219
:102770000692079303A800F091FDB8B900F03AFE65
:102780000E4BA3FB00308009FEF730FC0420FEF75F
:1027900043FC00220F214FF0FF30FEF7E7FB15B09E
:1027A0005DF804FBA7210648FFF7ACFFB4210448FD
:1027B000FFF7A8FF0038024000700040D34D6210C0
:1027C000D893000808B501F09DFAFFF79DFFFEF7CA
:1027D00039FC01F0D7FA01F025FA00F067FEFEF7A8
:1027E00009FF00F02DFE00F0AFFF00F031FFFFF712
:1027F000DDFBFFF741FCFFF757FF02F0A7FA02F0FD
:102800008DFBFAE770B4036A23F001030362036AE5
:102810004268846924F073040D6845EA040623F0D5
:1028200002048B6823430C4DA84202D00B4CA042FB
:102830000BD123F00803CD682B4323F0040322F4CB
:1028400040724D6915438A692A43426086614A682D
:102850004263036270BC7047000001400004014005
:1028600030B4036A23F480730362036A4268C46964
:1028700024F073040D682C4323F400738D6843EA3D
:1028800005230E4DA84203D005F58065A8420ED160
:1028900023F40063CD6843EA052323F4806322F424
:1028A00040524D6942EA05128D6942EA05124260C2
:1028B000C4614A68C263036230BC704700000140D3
:1028C00030B4036A23F480530362036A4468C26924
:1028D00022F4E6420D6842EA052223F400538D6893
:1028E00043EA0533094DA84203D005F58065A842A7
:1028F00004D124F480444D6944EA85144460C261E3
:102900004A680264036230BC704700BF00000140A7
:1029100003682E4A904212D0B0F1804F0FD0A2F53A
:102920007C4290420BD002F58062904207D002F5C3
:102930008062904203D002F57842904203D123F0A6
:1029400070034A681343214A90422AD0B0F1804F65
:1029500027D0A2F57C42904223D002F580629042BB
:102960001FD002F5806290421BD002F5784290425F
:1029700017D002F57052904213D002F58062904257
:102980000FD002F5806290420BD0A2F598329042AF
:1029900007D002F58062904203D002F58062904237
:1029A00003D123F44073CA68134303608B68C36286
:1029B0000B688362054B984203D003F5806398420D
:1029C00001D10B690363012343617047000001409B
:1029D000A8B110B5044690F839305BB1022384F8F1
:1029E0003930211D2068FFF793FF012384F8393027
:1029F000002010BD80F8383000F08EFDEEE7012099
:102A00007047002847D0F8B505460C4690F8393095
:102A1000002B3BD0022385F83930294651F8042B8E
:102A2000936823F0070393602868FFF771FF296814
:102A30008A688E690F6A2068104326F4407626F073
:102A40000306A268A36942EA0323334323F47C43C9
:102A500023F0FC03E668E26946EA02261E43226A86
:102A60001303226943EA0213334327F0AA0762687B
:102A7000646942EA04123A43886029688B612B68D2
:102A80001A62012385F839300020F8BD80F838300B
:102A900000F06AFDBEE701207047000030B4036A11
:102AA00023F010030362036A4468826922F4E64259
:102AB0000D6842EA052223F020038D6843EA0513DE
:102AC0000E4DA84203D005F58065A8420ED123F033
:102AD0008003CD6843EA051323F0400324F44064E7
:102AE0004D6944EA85048D6944EA85044460826145
:102AF0004A688263036230BC704700BF0000014037
:102B000038B590F83830012B66D00D4604460123C5
:102B100080F83830022380F839300C2A1AD8DFE8E0
:102B200002F0071919192019191934191919470030
:102B30000068FFF767FE2268936943F0080393611A
:102B40002268936923F004039361226893692969D9
:102B50000B439361012384F83930002084F8380056
:102B600038BD0068FFF79AFF2268936943F4006359
:102B700093612268936923F4806393612268936967
:102B8000296943EA01239361E4E70068FFF768FEDF
:102B90002268D36943F00803D3612268D36923F024
:102BA0000403D3612268D36929690B43D361D1E758
:102BB0000068FFF785FE2268D36943F40063D361A0
:102BC0002268D36923F48063D3612268D3692969B9
:102BD00043EA0123D361BDE70220C1E710B401231A
:102BE00003FA01F4036A23EA04030362036A8A40D6
:102BF000134303625DF8044B7047000010B50446B0
:102C000001220068FFF7EAFF2368094A934203D0D4
:102C100002F58062934203D15A6C42F400425A6436
:102C20002268136843F001031360002010BD00BF49
:102C30000000014010B5044661B1042916D00122FC
:102C400000210068FFF7CAFF012204212068FFF776
:102C5000C5FF04E0012200210068FFF7BFFF2268E2
:102C6000136843F001031360002010BD012204210A
:102C70000068FFF7B3FFF2E700230F2B00F2D780C5
:102C8000F0B482B039E0072200E00022B2403A43BB
:102C90000234674E46F82420664A1468EA4302EA82
:102CA00004064F6817F4803F01D045EA0406614CE2
:102CB0002660646802EA04064F6817F4003F01D0FA
:102CC00045EA04065B4C6660A46802EA04064F68A5
:102CD00017F4801F01D045EA0406564CA660E4684C
:102CE00022404E6816F4001F01D045EA0402514C00
:102CF000E26001330F2B00F2978001229A400C68AA
:102D000004EA0205AA42F4D14C68022C01D0122C2C
:102D100010D1DE08083650F826C003F00704A700DB
:102D20000F24BC402CEA040C0C69BC4044EA0C049F
:102D300040F8264004685F000326BE40F64306EADA
:102D4000040C4C6804F00304BC4044EA0C04046026
:102D50004C6804F1FF3CBCF1010F03D9112C01D0E8
:102D6000122C10D1846806EA040CCC68BC4044EAFA
:102D70000C048460446824EA02024C68C4F3001422
:102D80009C4014434460C26816408A68BA4032438B
:102D9000C2604A6812F0805FABD000220192264ADE
:102DA000546C44F480445464526C02F480420192A6
:102DB000019A9C08A61C1E4A52F8267003F00302D2
:102DC00096000F22B24027EA02071C4A90423FF4C5
:102DD0005CAF02F5806290421AD002F580629042A8
:102DE00018D002F58062904216D002F580629042BF
:102DF00014D002F58062904212D002F580629042B7
:102E000010D002F5806290423FF43DAF08223DE7CA
:102E100001223BE7022239E7032237E7042235E7A4
:102E2000052233E7062231E702B0F0BC7047704755
:102E300000380140003C01400038024000000240E0
:102E40000369194201D1002070470120704712B96F
:102E5000090481617047816170470000002800F01B
:102E6000BB8170B582B00446036813F0010F3BD0FC
:102E7000A74B9B6803F00C03042B2CD0A44B9B683E
:102E800003F00C03082B21D06368B3F5803F4FD0CB
:102E9000B3F5A02F52D09E4B1A6822F480321A60EC
:102EA0001A6822F480221A606368002B50D000F068
:102EB0004FFF0546964B1B6813F4003F14D100F0FA
:102EC00047FF401B6428F5D903208AE1904B5B68DB
:102ED00013F4800FD8D08E4B1B6813F4003F03D03F
:102EE0006368002B00F07A81236813F0020F55D03D
:102EF000874B9B6813F00C0F3ED0854B9B6803F00B
:102F00000C03082B33D0E368002B68D0814B0122DF
:102F10001A6000F01DFF05467D4B1B6813F0020F81
:102F200054D100F015FF401B0228F5D9032058E1C9
:102F3000774A136843F480331360B5E7744B1A681B
:102F400042F480221A601A6842F480321A60ABE7B9
:102F500000F0FEFE05466E4B1B6813F4003FC3D025
:102F600000F0F6FE401B6428F5D9032039E1684BD8
:102F70005B6813F4800FC6D1654B1B6813F0020F1A
:102F800004D0E368012B01D001202AE1604A1368D4
:102F900023F0F803216943EAC1031360236813F0A7
:102FA000080F40D0636963B35B4B01221A6000F0E5
:102FB000CFFE0546564B5B6F13F0020F33D100F086
:102FC000C7FE401B0228F5D903200AE1504A1368C6
:102FD00023F0F803216943EAC1031360DEE74D4B98
:102FE00000221A6000F0B4FE0546494B1B6813F03E
:102FF000020FD3D000F0ACFE401B0228F5D903200D
:10300000EFE0454B00221A6000F0A2FE0546404B5F
:103010005B6F13F0020F06D000F09AFE401B0228EF
:10302000F5D90320DDE0236813F0040F79D0384B85
:103030001B6C13F0805F33D100230193344B1A6C67
:1030400042F080521A641B6C03F080530193019B81
:103050000125324B1B6813F4807F23D0A368012B1A
:1030600034D0052B38D02A4B1A6F22F001021A6790
:103070001A6F22F004021A67A368002B36D000F002
:1030800067FE0646224B1B6F13F0020F48D100F07B
:103090005FFE801B41F288339842F3D90320A0E001
:1030A0000025D6E71D4A136843F48073136000F0CF
:1030B0004FFE0646194B1B6813F4807FCED100F0FB
:1030C00047FE801B0228F5D903208AE0104A136FBF
:1030D00043F001031367CFE70D4B1A6F42F0040270
:1030E0001A671A6F42F001021A67C5E700F030FE56
:1030F0000646074B1B6F13F0020F11D000F028FE9D
:10310000801B41F288339842F3D9032069E000BF65
:103110000038024000004742800E474200700040E5
:10312000E5B9A369002B5BD0304A926802F00C022B
:10313000082A58D0022B17D02D4B00221A6000F01D
:1031400007FE0446294B1B6813F0007F42D000F0B5
:10315000FFFD001B0228F5D9032042E0234A136C2F
:1031600023F080531364DCE7214B00221A6000F047
:10317000EFFD05461D4B1B6813F0007F06D000F0E5
:10318000E7FD401B0228F5D903202AE0E369226A03
:103190001343626A43EA8213A26A5208013A43EA7D
:1031A0000243E26A43EA0263104A5360104B012271
:1031B0001A6000F0CDFD04460C4B1B6813F0007F35
:1031C00006D100F0C5FD001B0228F5D9032008E058
:1031D000002006E0002004E001207047012000E00C
:1031E000002002B070BD0120FBE700BF00380240A4
:1031F00060004742264B9B6803F00C03042B44D02D
:10320000082B01D0234870472DE9F04B204B5A681A
:1032100002F03F025B6813F4800F13D01C4B596817
:10322000C1F3881100231C48A1FB0001FDF70CFD30
:10323000174B5B68C3F3014301335B00B0FBF3F052
:10324000BDE8F08B124B5B68C3F388131E46002762
:103250005C010025E41A65EB0705A90141EA9461C8
:10326000A001001B61EB0501CB0043EA5073C400D1
:10327000A01943EB07018B0243EA905384022046D6
:1032800019460023FDF7E0FCD2E70348704700BF72
:10329000003802400024F40040787D01002800F04E
:1032A0009D8070B504464F4B1B6803F00F038B42A3
:1032B00009D2CBB24B4A1370136803F00F038B4251
:1032C00001D0012070BD236813F0020F17D013F056
:1032D000040F04D0444A936843F4E0539360236896
:1032E00013F0080F04D0404A936843F4604393609E
:1032F0003D4A936823F0F003A068034393600D46B2
:10330000236813F0010F32D06368012B21D09A1E7D
:10331000012A25D9344A126812F0020F60D03249CE
:103320008A6822F0030213438B6000F011FD064609
:103330002D4B9B6803F00C036268B3EB820F16D031
:1033400000F006FD801B41F288339842F0D903203B
:10335000B8E7254A126812F4003FE0D10120B1E736
:10336000214A126812F0007FD9D10120AAE71D4B33
:103370001B6803F00F03AB4209D9EAB2194B1A706C
:103380001B6803F00F03AB4201D001209AE72368CA
:1033900013F0040F06D0144A936823F4E053E16855
:1033A0000B439360236813F0080F07D00E4A93680D
:1033B00023F46043216943EAC1039360FFF71AFFD6
:1033C000094B9B68C3F30313084AD35CD840084BEE
:1033D00018600F2000F070FC002073E70120704798
:1033E00001206FE7003C024000380240F0930008E3
:1033F00000000020014B1868704700BF000000204B
:1034000008B5FFF7F7FF044B9B68C3F38223034A19
:10341000D35CD84008BD00BF0038024000940008CB
:1034200008B5FFF7E7FF044B9B68C3F34233034A39
:10343000D35CD84008BD00BF0038024000940008AB
:1034400000B58DB01648174B0360002343608360BE
:103450004FF6FF72C260036101220392049305924A
:1034600006930793089309920A930B9303A9FFF716
:10347000C8FA50B900230193029301A9084800F04B
:103480009BFC38B90DB05DF804FBB7210648FFF787
:1034900039F9EFE7BE210448FFF734F9F2E700BF3E
:1034A000C003002000040040E493000800B58DB084
:1034B0001648174B03600023436083604FF6FF728A
:1034C000C26003610122039204930592069307935D
:1034D000089309920A930B9303A9FFF792FA50B944
:1034E00000230193029301A9084800F065FC38B954
:1034F0000DB05DF804FBD8210648FFF703F9EFE7AC
:10350000DF210448FFF7FEF8F2E700BF7003002058
:1035100000080040E493000882B00368104A934218
:1035200004D0B3F1804F0ED002B070470023009357
:103530000C4B5A6C42F001025A645B6C03F00103BD
:103540000093009BF0E700230193064B1A6C42F0B6
:1035500001021A641B6C03F001030193019BE3E772
:10356000000001400038024000B589B003681D4AE0
:10357000934205D01C4A93421BD009B05DF804FB6E
:103580000023019302F50D32116C41F00201116428
:10359000126C02F002020192019AC02203920222EE
:1035A000049205930693079203A91048FFF764FB62
:1035B000E3E70023029302F50C32116C41F00401A1
:1035C0001164126C02F004020292029AC022039269
:1035D0000222049205930693079203A90448FFF779
:1035E0004BFBCAE700040040000800400000024016
:1035F0000004024000B587B00368134A934205D027
:10360000B3F1804F11D007B05DF804FB4FF4706345
:103610000193022302930023039304930123059350
:1036200001A90A48FFF728FBEDE7202301930223B5
:1036300002930023039304930123059301A90348F4
:10364000FFF71AFBDFE700BF000001400000024067
:1036500000B591B039483A4B036001234360002321
:10366000836040F21F32C26003614361FFF7B0F92B
:1036700000283FD100230E930F930EA92F4800F08E
:103680009BFB00283BD160230793002208920992FC
:103690000A920B920C920D9207A92848FFF730FA74
:1036A000002831D1042207A92448FFF729FA00286D
:1036B0002FD1082207A92148FFF722FA70BB0C225C
:1036C00007A91E48FFF71CFA68BB0023009301936B
:1036D0000293039304934FF40052059206936946B4
:1036E000164800F092FB18BB1448FFF783FF11B097
:1036F0005DF804FB4A211348FFF704F8BAE75121AB
:103700001048FEF7FFFFBEE75D210E48FEF7FAFF07
:10371000C8E762210B48FEF7F5FFCAE767210948B1
:10372000FEF7F0FFCBE76C210648FEF7EBFFCCE796
:1037300078210448FEF7E6FFD6E700BF1804002012
:1037400000000140E493000800B58BB01B484FF027
:1037500080430360092343600023836040F2E73223
:10376000C2600361FFF734F9C0B9002308930993DD
:1037700008A9124800F020FBA8B960230193002299
:1037800002920392059201A90C48FFF7B9F978B9A2
:103790000A48FFF72FFF0BB05DF804FB8B210848A8
:1037A000FEF7B0FFE1E792210548FEF7ABFFE4E743
:1037B0009B210348FEF7A6FFEAE700BF5404002060
:1037C000E493000810B50C461A4B4FF080421A6083
:1037D000586000229A6040F2CF71D9601A615A6134
:1037E0001846FFF7F5F898B9134960230B604C6051
:1037F00000228A60CA600A614A618A610D48FFF747
:103800007FF958B900210B48FFF7F8F960B910BDEE
:103810004FF4DC710948FEF775FFE5E74FF4E271FC
:103820000648FEF76FFFEDE74FF4E4710348FEF73B
:1038300069FFECE754040020FC030020E493000837
:1038400038B50C46624B60221A6000229A60DA603A
:103850001A615A619A61B0F5487F05DA054610F59C
:10386000487F03DC5B4D01E040F21F35B4F5487F33
:1038700004DA14F5487F03DC564C01E040F21F34B3
:10388000002D3BDB524900224A605348FFF738F9CC
:10389000002850D14E494D6004224F48FFF730F9BF
:1038A00000284ED1002C52DB494900234B600C22EA
:1038B0004948FFF725F9002866D145494C600822A0
:1038C0004548FFF71DF9002864D100214248FFF761
:1038D00095F9002864D104213F48FFF78FF90028AB
:1038E00064D108213C48FFF789F9002864D10C21F4
:1038F0003948FFF783F9002864D138BD6D42344957
:103900004D6000223448FFF7FBF870B930490023BE
:103910004B6004223048FFF7F3F80028C2D04FF480
:10392000F9712E48FEF7EEFEBCE740F2ED112B4890
:10393000FEF7E8FEEAE740F2F9112848FEF7E2FE5A
:10394000A8E74FF4FF712548FEF7DCFEAAE76442C2
:103950001F494C600C222048FFF7D2F870B91C496F
:1039600000234B6008221C48FFF7CAF80028ACD09F
:103970004FF403711948FEF7C5FEA6E740F2072190
:103980001648FEF7BFFEEAE740F213211348FEF7A0
:10399000B9FE92E74FF406711048FEF7B3FE94E7C4
:1039A00040F21E210D48FEF7ADFE94E740F22121C2
:1039B0000A48FEF7A7FE94E74FF409710748FEF79F
:1039C000A1FE94E740F227210448FEF79BFE94E70E
:1039D000FC030020E1FCFFFF18040020E493000832
:1039E00010B41A4C636A1A494A6A0020606248623D
:1039F000524212B202FA83F307EE103AB8EEC77AD7
:103A0000DFED147A27EE277AF1EE056AC7EE267A03
:103A10009FED117A67EE877A9FED107A67EE877ACD
:103A20009FED0F7A27EE877A0E4B83ED017A93EDA7
:103A3000007A37EE277A83ED007A93ED027A77EEFB
:103A4000277AC3ED027A5DF8044B7047000400400A
:103A5000000800400000803ADB0F4940CDCC4441D3
:103A600000007A44B4030020074B1A6922F4407224
:103A70001A611A6942F004021A611A6942EA0020C6
:103A800040F4803018617047003C024010B449B1E6
:103A9000012921D0022902D04FF4407403E04FF4F1
:103AA000007400E000240E4B196921F44071196183
:103AB0001A6922431A611A6922F0F8021A611A6916
:103AC00042EAC00040F0020018611A6942F48032F4
:103AD0001A615DF8044B70474FF48074E3E700BF50
:103AE000003C0240164B1B6813F4007F10D0144BAF
:103AF0001A6822F400721A601A6842F400621A60AE
:103B00001A6822F400621A601A6842F400721A609D
:103B10000B4B1B6813F4806F10D0094B1A6822F40A
:103B200080621A601A6842F480521A601A6822F49D
:103B300080521A601A6842F480621A60704700BFAF
:103B4000003C0240F8B5224B1B7E012B3ED00E46B6
:103B500004461F4B01221A764CF2503000F0CEFD85
:103B6000074670BB4FF0FF3333602368012B16D03C
:103B7000A568E368A2681344AB4220D9217C28469B
:103B8000FFF784FF4CF2503000F0B8FD114A136982
:103B900023F0FA031361074680B90135E9E761684C
:103BA000207CFFF761FF4CF2503000F0A7FD074684
:103BB000084A136923F00403136100E03560FFF73E
:103BC00091FF034B00221A763846F8BD0227FBE727
:103BD000D4040020003C02400F49D1F8883043F45F
:103BE0007003C1F888300D4B1A6842F001021A6068
:103BF000002098601A6822F0847222F480321A60E1
:103C0000074A5A601A6822F480221A60D8604FF07E
:103C100000638B60704700BF00ED00E00038024099
:103C20001030002408B50B480B4B03604FF41653BB
:103C3000436000238360C36003610C22426183619F
:103C4000C361FEF782FC00B908BD42210348FEF7BC
:103C500059FDF9E79004002000480040089400084E
:103C60000268124B9A4200D0704700B587B000231B
:103C700000930F4B1A6C42F480221A641B6C03F4FD
:103C800080230093009B4FF440630193022302932F
:103C900001230393032304930723059301A90548F4
:103CA000FEF7EAFF07B05DF804FB00BF00480040E4
:103CB000003802400004024010B504460E4B18784C
:103CC0004FF47A73B3FBF0F30C4A1068B0FBF3F0D7
:103CD000FDF78CF968B90F2C01D901200AE0002208
:103CE00021464FF0FF30FDF741F9054B1C600020E5
:103CF00000E0012010BD00BF0400002000000020F3
:103D00000800002008B50B4B1A6842F400721A60D4
:103D10001A6842F480621A601A6842F480721A606B
:103D20000320FDF711F90F20FFF7C6FFFDF7CCFDCB
:103D3000002008BD003C0240034A1168034B1B7879
:103D40000B441360704700BFD00400200400002023
:103D5000014B1868704700BFD004002038B50446F6
:103D6000FFF7F6FF0546B4F1FF3F02D0044B1B7886
:103D70001C44FFF7EDFF401BA042FAD338BD00BF43
:103D80000400002000B583B000210191094B1A6B9B
:103D900042F480021A631B6B03F480030193019BBE
:103DA0000A463820FDF7E2F83820FDF713F903B092
:103DB0005DF804FB0038024090F83830012B22D027
:103DC00030B4012280F83820022380F839300468AA
:103DD000636823F070036360046863680D682B43B5
:103DE00063600468A36823F08003A3600468A36889
:103DF00049680B43A36080F83920002380F83830ED
:103E0000184630BC70470220704790F83830012BBC
:103E100025D0012380F83830CB6823F440738A68BA
:103E2000134323F480634A68134323F400630A684E
:103E3000134323F480530A69134323F400534A695C
:103E4000134323F480438A69134323F40043134349
:103E500002685364002380F8383018467047022007
:103E600070470000494B5A6822F440325A605A6841
:103E700041680A435A600268536823F480735360B0
:103E800002685368016943EA01235360026853687A
:103E900023F0407353600268536881680B4353609A
:103EA0000268936823F40063936002689368C168B2
:103EB0000B439360826A364B9A4249D002689368FA
:103EC00023F07063936002689368816A0B43936088
:103ED0000268936823F04053936002689368C16A54
:103EE0000B4393600268936823F0020393600268B7
:103EF0009368816943EA41039360036A002B32D1DE
:103F00000268536823F4006353600268D36A23F4A1
:103F10007003D3620168CB6AC269013A43EA025373
:103F2000CB620268936823F400739360026893681D
:103F3000016B43EA412393600268936823F4806332
:103F4000936002689368416943EA812393607047F4
:103F50000268936823F0706393600268936823F0AB
:103F600040539360BEE70268536843F400635360B4
:103F70000268536823F46043536001684B68426AE7
:103F8000013A43EA42334B60BFE700BF00230140E0
:103F90000100000F30B310B50446036C43B1236C2D
:103FA00013F0100F0AD00120002384F83C3010BD1C
:103FB000436480F83C30FEF797F8F0E7236C23F475
:103FC000885323F0020343F0020323642046FFF7E3
:103FD00049FF00206064236C23F0030343F00103D6
:103FE0002364E1E70120704782B00023019390F839
:103FF0003C30012B63D0012380F83C3003689A6881
:1040000012F0010F13D19A6842F001029A60304B0E
:104010001B68304AA2FB03239B0C03EB4303019371
:1040200002E0019B013B0193019B002BF9D1026847
:10403000936813F0010F44D0036C23F4E06323F082
:10404000010343F480730364536813F4806F05D055
:10405000036C23F4405343F480530364036C13F460
:10406000805F19D0436C23F006034364002380F87B
:104070003C306FF022031360174B5B6813F01F0F87
:104080000DD103689A6812F0405F1DD19A6842F022
:1040900080429A60002015E000234364E6E703684D
:1040A0000E4A934201D000200CE09A6812F0405F63
:1040B0000CD19A6842F080429A60002002E002200F
:1040C00000E0002002B070470020FBE70020F9E785
:1040D0000000002083DE1B4300230140002001403C
:1040E00090F83C30012B19D0012380F83C30026855
:1040F000936823F00103936003689B6813F0010F3A
:1041000007D1036C23F4885323F0010343F0010328
:104110000364002380F83C30184670470220704743
:1041200003689A6812F4806F03D09B6813F4807F51
:104130001CD170B50D460446FFF70AFE06462368FB
:104140001A6812F0020F1AD1B5F1FF3FF7D025B16E
:10415000FFF7FEFD801BA842F1D9236C43F0040356
:104160002364002384F83C3003202DE0036C43F0EB
:1041700020030364002380F83C30012070476FF077
:1041800012021A60236C43F40073236423689A6854
:1041900012F0405F17D1A269BAB9DA6A12F4700F4F
:1041A00003D09B6813F4806F11D1236C23F48073C8
:1041B0002364236C13F4805F0BD1236C43F0010361
:1041C0002364002000E0002070BD0020FCE70020F8
:1041D000FAE70020F8E7000030B583B00023019330
:1041E00090F83C30012B00F08180012380F83C30B6
:1041F0000468A36813F0010F13D1A36843F001030F
:10420000A3603F4B1C683F4BA3FB0434A40C04EB9E
:104210004404019402E0019C013C0194019C002CA7
:10422000F9D103689C6814F0010F61D0046C24F488
:10423000E06424F0010444F4807404645B6813F4C3
:10424000806F05D0036C23F4405343F48053036420
:10425000036C13F4805F36D0436C23F00603436491
:1042600013460446002280F83C20826B2648D06327
:10427000A26B26481064A26B2548D06422686FF0B8
:10428000220010602568686840F0806068602568DA
:10429000A86840F48070A86020680A4600F14C01CC
:1042A000A06BFDF713F81B4B5B6813F01F0F0DD1CC
:1042B00023689A6812F0405F1DD19A6842F08042EC
:1042C0009A60002015E000234364C9E72368124A7E
:1042D000934201D000200CE09A6812F0405F0CD1AC
:1042E0009A6842F080429A60002002E0022000E0DA
:1042F000002003B030BD0020FBE70020F9E700BF3D
:104300000000002083DE1B4383430008E5430008D0
:10431000F1430008002301400020014090F83C30A8
:10432000012B28D010B50446012380F83C300268E8
:10433000936823F00103936003689A6812F0010FF9
:1043400004D00020002384F83C3010BD9A6822F489
:1043500080729A60806BFCF7F3FF2268536823F049
:1043600080635360236C23F4885323F0010343F0EC
:1043700001032364E6E7022070470368D86C7047A6
:10438000704708B5836B1A6C12F0500F03D09B6B0B
:10439000DB6C984708BD1A6C42F400721A641A6804
:1043A000916811F0405F19D19969B9B9D16A11F4D6
:1043B000700F03D0916811F4806F0FD1516821F014
:1043C000200151601A6C22F480721A641A6C12F483
:1043D000805F03D11A6C42F001021A641846FFF79D
:1043E000CFFFD7E708B5806BFDF700F908BD704730
:1043F00008B5806B40230364436C43F004034364BB
:10440000FFF7F5FF08BD000030B482B00023019330
:1044100090F83C30012B00F0B780012380F83C304D
:104420000B68092B3ED90568EA689BB203EB43038E
:104430001E3B072404FA03F322EA0303EB6005683A
:10444000EA688C680B8803EB43031E3B04FA03F312
:104450001343EB604B68062B3AD805686A6B03EB95
:104460008303053B1F2404FA03F322EA03036B636F
:1044700005686A6B4B6803EB8303053B0C8804FA01
:1044800003F313436B630268404B9A4250D00268B7
:104490003E4B9A4255D0002380F83C30184602B07B
:1044A00030BC704705682A699BB203EB43030724BD
:1044B00004FA03F322EA03032B6105682A698C6876
:1044C0000B8803EB430304FA03F313432B61C1E7A7
:1044D0000C2B16D805682A6B03EB8303233B1F24A0
:1044E00004FA03F322EA03032B6305682A6B4B6883
:1044F00003EB8303233B0C8804FA03F313432B637E
:10450000C1E70568EA6A03EB8303413B1F2404FA11
:1045100003F322EA0303EB620568EA6A4B6803EBE4
:104520008303413B0C8804FA03F31343EB62AAE7CD
:104530000B68122BABD1164A536843F480035360C7
:10454000A5E70B68103B012BA5D8114A536843F42B
:10455000000353600B68102B9DD10E4B1B6802F1BA
:10456000467202F52E3202F28332A2FB03239B0C29
:1045700003EB83035A00019202E0019B013B01938C
:10458000019B002BF9D186E7022088E7002001403B
:10459000002301400000002010B409490C6924F4F4
:1045A00040740C610C6944F440740C610C6944F073
:1045B00001040C61026043605DF8044B704700BF6A
:1045C000003C0240074B1A6922F440721A611A69D2
:1045D00042F400721A611A6942F001021A61016024
:1045E000704700BF003C0240074B1A6922F440723A
:1045F0001A611A6942F480721A611A6942F0010262
:104600001A610180704700BF003C0240064B1A69E6
:1046100022F440721A611A691A611A6942F00102A1
:104620001A610170704700BF003C0240204BDB68FC
:1046300013F0100F07D01F4AD36943F01003D36162
:104640001B4B1022DA601A4BDB6813F0200F07D0E7
:10465000184AD36943F00803D361154B2022DA606E
:10466000134BDB6813F0400F07D0124AD36943F0B5
:104670000403D3610E4B4022DA600D4BDB6813F06C
:10468000800F07D00B4AD36943F00203D361084B74
:104690008022DA60064BDB6813F0020F07D0054A70
:1046A000D36943F02003D361014B0222DA607047E3
:1046B000003C0240D4040020094B1B69002B01DBA5
:1046C00000207047064B074A5A6002F188325A6050
:1046D0001B69002B01DB002070470120704700BFE1
:1046E000003C024023016745034A136943F000433D
:1046F00013610020704700BF003C024038B50446FB
:10470000154B0022DA61FFF723FB0546134BDB68EC
:1047100013F4803F0AD0B4F1FF3FF7D0CCB1FFF7DC
:1047200017FB401BA042F1D903200DE00B4BDB68C7
:1047300013F0010F02D0094B0122DA60074BDB684E
:1047400013F0F20F01D1002038BDFFF76FFF0120F9
:10475000FAE70320F8E700BFD4040020003C024041
:10476000F8B51D4C247E012C34D01F4616460D464C
:104770000446194B01221A764CF25030FFF7BEFF67
:10478000014698B9BCB1012C1AD0022C1DD032467A
:104790003B462846FFF700FF4CF25030FFF7AEFFD4
:1047A00001460E4A136923F0010313610A4B0022EC
:1047B0001A760846F8BDF1B22846FFF727FFEBE767
:1047C000B1B22846FFF710FFE6E731462846FFF76B
:1047D000F9FEE1E70221ECE7D4040020003C0240AE
:1047E00070B50D461646002404E0AFF30080287033
:1047F00001340135B442F8DB304670BD70B5164661
:10480000002405E04D1C0878FDF73EFF01342946E1
:10481000B442F7DB304670BD08B503460B4A126858
:1048200042B10A4A106803446A46934206D8074ACE
:10483000136008BD054A06491160F2E702F0E6F888
:104840000C2303604FF0FF30F3E700BFF8010020B6
:10485000A00800204FF0FF3070474FF400534B602A
:104860000020704701207047002070470A4B4FF42A
:10487000FC729A804FF4D772DA80084B4FF4AA7218
:104880009A804FF49B72DA80054B40F26A229A803C
:1048900040F22B22DA807047140500200405002026
:1048A0004C0500201A4BB3F900301A4AB2F9002027
:1048B000134403EBD37343F34F03174A1380B2F946
:1048C0000620934217DA144B00221A73134BB3F9E4
:1048D0000020B3F906309A4211DA104B00221A7305
:1048E0000F4BB3F90020B3F906309A420BDB0C4BA7
:1048F00001221A737047084B01221A73E6E7074B2F
:1049000001221A73ECE7064B00221A73704700BFAE
:104910003405002024050020040500201405002093
:104920004C05002008B5044B00221A8004220349DC
:104930000348FFF751FC08BD5A050020440500203C
:10494000C802002008B5104BB3F90030032B00D08B
:1049500008BDFFF7A7FF0C4B00221A8004220B4969
:104960000B48FFF739FC0B4BB3F900108AB258889B
:10497000121A5A815980084BB3F900108AB258882C
:10498000121A5A815980E3E75A0500204405002095
:10499000C8020020140500204C050020F0B583B0AB
:1049A000514BB3F90030012B26D0022B6FD00BB145
:1049B00003B0F0BD4D4D2846FFF7B0FC4C4C2288AB
:1049C0004C4B1A8062885A80A2889A80E288DA80EA
:1049D000494E012204213046FEF739FA012208210E
:1049E0003046FEF734FA404B01221A800422214659
:1049F0002846FFF7F1FBDBE73C48FFF78FFC3E4C16
:104A0000002204212046FEF722FA00220821204637
:104A1000FEF71DFA364B9A8838498A80DB88CB80AE
:104A20003749B1F90070334DAE88B01A17FA80F0EB
:104A30000881921B0A80334AB2F90060E888C11AE3
:104A400016FA81F111811B1A1380012211462046AA
:104A5000FEF7FDF9012202212046FEF7F8F90023B6
:104A60008DF8073005E09DF807300133DBB28DF893
:104A700007309DF80730DBB2632BF4D91A4B0222C2
:104A80001A8004221A491948FFF7A6FB90E7174835
:104A9000FFF744FC184C002201212046FEF7D7F90D
:104AA000002202212046FEF7D2F9114B1A88134941
:104AB0000A805B884B801449B1F900600D4C258851
:104AC000A81A16FA80F00881521B0A800F4AB2F920
:104AD00000506088C11A15FA81F111811B1A1380E8
:104AE000014B03221A8063E75A050020C802002008
:104AF00044050020F404002000080240FC040020CB
:104B00001405002034050020240500204C05002059
:104B100030B52DED028B83B000249FED1F8A16E087
:104B20001E48FFF761FA32211C48FFF7F9FA002806
:104B3000F9D11A4D2846FFF720FC07EE900AF8EE4F
:104B4000677A38EE278A2846FFF7CAFA0134092C1B
:104B5000E6DDF2EE047AC8EE276A9FED117AC6EE22
:104B6000877A9FED107A67EE877A9FED0F7A87EE4E
:104B7000878ADFED0E7A28EE278AFCEEC87ACDED23
:104B8000017A9DF8040000F099F8B0EE480A03B0ED
:104B9000BDEC028B30BD00BF000000008002002091
:104BA00000F07F45000005430000044233335340CA
:104BB00000B587B0002301930B22039201220492D7
:104BC0000222059206A941F8183D01A8FEF7BAFF96
:104BD00007B05DF804FB70B505460E461446FFF7B6
:104BE0006BFDFFF7E5FF08E016F8012B00232946CF
:104BF0000020FFF7B5FD0135013C002CF4D1FFF793
:104C000073FD70BD08B50B460146184601F028FF3C
:104C100008BD000008B54FF4017202490248FFF7D1
:104C2000DAFF08BD8C05002000000E0808B54FF41F
:104C3000017202490248FFF7E5FF08BD8C0500201C
:104C400000000E0808B54FF49671FEF7BBFD642016
:104C5000FFF784F800210A20FEF7B4FD08BD00002C
:104C600010B5074C04212046FEF7EAF8042120463F
:104C7000FEF7E6F8012801D0012010BD0020FCE776
:104C8000000C024010B50C4C01224FF4005120469C
:104C9000FEF7DDF801224FF480412046FEF7D7F8F9
:104CA000012280212046FEF7D2F801224FF48071C4
:104CB0002046FEF7CCF810BD0008024010B50446AF
:104CC00018B314F0010F23D000224FF400511E48F6
:104CD000FEF7BDF814F0020F21D000224FF48041FE
:104CE0001948FEF7B4F814F0040F1FD000228021F9
:104CF0001548FEF7ACF814F0080F1DD101224FF44F
:104D000080711148FEF7A3F810BDFFF7BBFFD8E78D
:104D100001224FF400510C48FEF799F8DAE701221E
:104D20004FF480410848FEF792F8DCE70122802129
:104D30000548FEF78CF8DEE700224FF48071024848
:104D4000FEF785F8E0E700BF0008024010B52A4BE7
:104D500001221A800024294B1C7023E0BAEE0E7A3F
:104D6000F4EEC77AF1EE10FA36D5013C64B233E0C6
:104D70000024234B00221A60C4EB4413C4EB8303CA
:104D80005800C0B2563800F0FE00FFF75BFFFFF797
:104D900067FF012826D0E0B2FFF790FF21461948AF
:104DA00002F0CEFA164BD3ED007AB2EE0E7AF4EEA4
:104DB000C77AF1EE10FA06DCBAEE0E7AF4EEC77A94
:104DC000F1EE10FAE3D5B2EE0E7AF4EEC77AF1EE18
:104DD00010FAC3DD013464B2062CC9DC002CC8DA39
:104DE0000624C6E74C20FFF72DFF4FF4FA70FEF7BC
:104DF000B5FF204610BD00BF860500206C050020D1
:104E0000B40300201494000810B5FFF78BFD29E0CF
:104E100000224FF400512A48FEF719F82CE0002236
:104E20004FF480412648FEF712F82FE0244C002270
:104E30004FF480712046FEF70AF8002280212046B8
:104E4000FEF705F81F4BB3F900301F4AB2F90020F6
:104E50001E49B1F900101E4802F072FAFFF700FF78
:104E6000012824D0174B1B7B012BD1D001224FF4FA
:104E700000511348FDF7EBFF144B1B7B012BCED0E9
:104E800001224FF480410E48FDF7E1FF0E4B1B7BE2
:104E9000012BCBD00A4C01224FF480712046FDF744
:104EA000D6FF012280212046FDF7D1FFCAE74C2022
:104EB000FFF7C8FE4FF4FA70FEF750FF10BD00BFB9
:104EC000000802404C0500200405002014050020C5
:104ED0001894000808B510B1012815D008BD01F0DC
:104EE00093FB4FF4FA70FEF739FFFFF793FE4FF490
:104EF0007A70FEF733FF01F0E9FB4FF4FA70FEF72A
:104F00002DFFFFF787FEE9E7FFF790FE01F054FC65
:104F100001F084FC01F0FAFCE0E7000010B5FEB0FF
:104F2000062808D8DFE800F004090D2C4B6A790048
:104F30000020FFF7CFFF7EB010BD0120FFF7CAFFB2
:104F4000F9E741F28830FEF709FFFCF7AFFC4FF4B8
:104F5000FA60FEF703FF324B01221A7000F094FE54
:104F6000304B1B88002BFBD000F05AFF00F0A2FE54
:104F70002C4B1B88002BFBD0294B00221A70DAE740
:104F800041F28830FEF7EAFEFCF790FC4FF4FA603D
:104F9000FEF7E4FE224B01221A7000F075FE214B51
:104FA0001B88002BFBD000F059FF00F083FE1D4B47
:104FB0001B88002BFBD01A4B00221A70BBE741F272
:104FC0008830FEF7CBFEFCF771FC4FF4FA60FEF779
:104FD000C5FE134B01221A7000F056FE114B1B88C0
:104FE000002BFBD000F012FF00F064FE0D4B1B887D
:104FF000002BFBD00A4B00221A709CE7FFF716FE2D
:10500000094C4FF4FA7204F11001684601F028FDD2
:1050100094E80F0000F09AFB8DE7FFF7F5FE8AE7B2
:105020006C050020860500208C0500200000000093
:10503000F8B52DED048B05460C46F0EE619AB0EE06
:10504000429A30EE608A68EE018A18EE100AFBF789
:105050007BFA13A3D3E90023FBF7CEFA06460F46EB
:105060002868FBF771FA32463B46FBF70FF9FBF76E
:105070009BFD00EE100A286020EE290A94ED002A1C
:1050800038EE422A22EE092A84ED008A38EE800AA0
:1050900030EE020ABDEC048BF8BD00BFAFF3008018
:1050A000FCA9F1D24D62503F70B4BDF80C40002510
:1050B000354E3560354E3560354D29806C80002881
:1050C00007DB00285AD0002807DD314D01262E715C
:1050D00003E0404200B2FF262E715D1A07EE105A1F
:1050E000B8EEC77A07EE904AF8EEE77A87EE276ABD
:1050F0009C1A07EE104AB8EEC77AC7EE276A07EE89
:10510000900AB8EEE77A591807EE901AF8EEE77AA7
:1051100067EE867AF6EE005A67EEA57A77EE677A42
:105120009A1807EE102AB8EEC77A27EE267A27EEED
:10513000257A37EEC77A07EE903AF8EEE77AC7EEAF
:10514000275A9FED147A26EE076A65EE877A66EE97
:10515000876A114BBCEEC66A16EE102A1A80FCEE66
:10516000E77A17EE902A5A80FCEEE66A16EE902A4D
:105170009A800A4B00221A7070BC7047044B0024BE
:105180001C7101242346A8E7FC0100200402002032
:105190007005002000007A44780500208605002074
:1051A00070B4BDF90C400025354E3560354E356084
:1051B000354D29806C80002807DB00285AD0002854
:1051C00007DD314D01262E7103E0404200B2FF267B
:1051D0002E715D1A07EE105AB8EEC77A07EE904AA4
:1051E000F8EEE77A87EE276A9C1A07EE104AB8EEC7
:1051F000C77AC7EE276A07EE900AB8EEE77A591821
:1052000007EE901AF8EEE77A67EE867AF6EE005A25
:1052100067EEA57A77EE677A9A1807EE102AB8EE4D
:10522000C77A27EE267A27EE257A37EEC77A07EE79
:10523000903AF8EEE77AC7EE275A9FED147A26EEF9
:10524000076A65EE877A66EE876A114BBCEEC66A1E
:1052500016EE102A1A80FCEEE77A17EE902A5A8092
:10526000FCEEE66A16EE902A9A800A4B00221A702B
:1052700070BC7047044B00241C7101242346A8E72E
:10528000FC010020040200208005002000007A4478
:105290005C050020860500202DE97043364B93F90C
:1052A000044044B3354B1D885DB9344B5B88002BFB
:1052B0003DD1324B9D88002D3DD1314B01221A70DA
:1052C00019E02D4EB6F90200FBF72CF928A3D3E91B
:1052D0000023FBF791F980468946B6F90000FBF7F9
:1052E00021F942464B46FAF7D1FFFBF735FC3080F7
:1052F000013D224B1D8007EE904AF8EEE77A1E4BE7
:10530000B3F9003000EE103AB8EEC00A9FED1D2A46
:10531000F2EE041AB1EE001A1B491C481C4BD3EDE7
:10532000010A27EE800AFFF783FEBDE87083013B88
:10533000124A5380DFE7104EB6F90200FBF7F2F88D
:105340000BA3D3E90023FBF757F980468946B6F94A
:105350000000FBF7E7F842464B46FAF795FFFBF7EC
:10536000FBFB3080013D054B9D80C4E7AFF300801F
:10537000FCA9F1D24D62503F700500207805002055
:105380008605002000000000FC0100200002002033
:10539000B4030020284B1B7B012B14D0012B2CD0F5
:1053A000264B1B7B012B37D09FED250A254B93ED18
:1053B000017ADFED257AB4EEE77AF1EE10FA01D545
:1053C0009FED1F0A70471D4A127B012AE6D11A4A37
:1053D000B2F90030B2F904209B1A1849B1F9002043
:1053E000B1F90410521A9B1A00EE103AB8EEC00A36
:1053F000DFED167A20EE270AD8E70F4AB2F900301F
:10540000B2F904209B1A00EE103AB8EEC00ADFEDA4
:10541000107A20EE270AC9E7084AB2F90030B2F93B
:1054200004209B1A00EE103AB8EEC00ADFED097AAC
:1054300020EE270ABAE700BF140500204C05002023
:1054400000000000B403002000009643CDCCCC3D0A
:10545000CDCC4C3ECDCC4CBEF8B52DED028B3E4BA9
:1054600093F9043093B13D4B1C88002C34D13B4B55
:105470005B88002B4BD1394B9C88002C4BD1364B91
:1054800000221A80364B01221A7002E0324B0022B1
:105490001A80314B93F9042008EE102AF8EEC87AEE
:1054A000B3F9003008EE103AB8EEC88A28EE278A21
:1054B000FFF770FFB1EE002AF3EE011A9FED291AF3
:1054C00029492A482A4BD3ED000A38EE400AFFF753
:1054D000AFFDBDEC028BF8BD1F4DB5F90200FBF727
:1054E00021F81BA3D3E90023FBF786F806460F46F5
:1054F000B5F90000FBF716F832463B46FAF7C6FE50
:10550000FBF72AFB2880013C144B1C80C1E7013BC0
:10551000124A5380BDE7104DB5F90200FBF702F8BF
:105520000BA3D3E90023FBF767F806460F46B5F94E
:105530000000FAF7F7FF32463B46FAF7A5FEFBF705
:105540000BFB2880013C054B9C80A2E7AFF3008059
:10555000FCA9F1D24D62503F800500205C0500207F
:10556000860500201F856B3F0402002008020020F2
:105570007002002010B50F4B1B78012B04D00021C6
:105580000846FEF75DF910BDFFF786FEBDEEC00AC6
:1055900010EE103A1CB2FFF75FFFBDEEC00AA1B2D9
:1055A00010EE103A9BB2C81A194409B200B2FEF7C5
:1055B00047F9E8E76C050020024B04221A70072225
:1055C0005A7070478C05002030B400250BE000EBCA
:1055D00004121A44FF2182F804110133DBB20F2BAD
:1055E000F5D90135EDB20F2D14D82C4600EB85020C
:1055F0000023536005F1100200EB8202536005F1B5
:10560000200200EB8202536005F1300200EB8202BF
:105610005360E4E74FF6FF730364C0F8C030C0F88E
:105620008030C0F80031436801334360D0F88430E3
:105630000133C0F8843030BC70470000F0B43D4BFB
:105640001B781A0903F00F033B49097803296CD82A
:10565000DFE801F002535B633848077B3848067B7C
:105660003848057B03F11000374C04EB8000446898
:1056700097403C43446043B103F10F00324C04EBCC
:10568000800044689140214341602F4901EB820131
:1056900048689E40304348603AB1511E2A4800EBAA
:1056A000810148689D4005434D6003F13000264963
:1056B00001EB80004468012191400C4344603BB100
:1056C00003F12F00204C04EB80004468214341602B
:1056D00002F120001C4901EB80004468012101FA1D
:1056E00003F31C43446032B11F32174901EB8202BD
:1056F00051680B435360F0BC704710490E7B104952
:10570000097B1048077B0025ACE70C49097B0C4856
:10571000057B0C48067B0027A4E708490D7B084958
:105720000F7B0849097B00269CE7002529462E4669
:105730002F4697E7880500209007002004050020E9
:105740004C050020140500208C05002084B070B5A5
:1057500004AC84E80F002D4801F07AFE102541E0EA
:105760002B4801F0EDFD0134E4B20F2C10D82B20B2
:1057700001F0FEFD05F10F0304AA02EB83035A6852
:105780000123A3401A42EBD0224801F0D9FDEAE7F9
:10579000214801F05DFE7C2001F0EAFD002404E0D8
:1057A000202001F0E5FD0134E4B20F2C15D86E1E67
:1057B00004AB03EB0413334493F80411174801F0CE
:1057C000BFFD04AB03EB84035A680123B3401A42C4
:1057D000E6D07C2001F0CCFDE5E70C4801F038FE76
:1057E000013DEDB24DB10024BFE72B2001F0C0FD1B
:1057F000084801F0A5FD0135EDB20F2DF5D9064899
:1058000001F026FEBDE8704004B070472C940008FB
:105810003494000830940008389400083C94000840
:105820000023C0F80033C0F8043307E00022C2545C
:10583000C11881F8FF2081F8FE210133FE2BF5DD30
:10584000704710B4D0F80443FE2C0CD80155011950
:1058500081F8FF2081F8FE310134C0F804430120B3
:105860005DF8044B7047FF20FAE782B0D0F80033B0
:10587000C25C8DF80020C21892F8FF108DF801105C
:1058800092F8FE218DF802200133C0F80033009B0E
:105890000020DAB262F30700C3F3072262F30F209D
:1058A000C3F3074363F3174002B070472DE9F0419B
:1058B000ADF5447D0446002118E004EB01121A44C2
:1058C000FF2082F804010133DBB20F2B0CD82278C1
:1058D0008A42F2D162789A42EFD104EB01121A4463
:1058E000002082F80401EEE70131C9B20F2901D886
:1058F0000023EAE702A8FFF793FF637822780021EC
:1059000002A8FFF79EFF2AE05FFA88F33A4629468D
:1059100002A8FFF796FF04EB0713984488F8045198
:1059200042E05FFA88F33A46294602A8FFF789FF6A
:1059300004EB0713984488F8045148E033465FFAB3
:1059400088F2294602A8FFF77CFF04EB08133344D2
:1059500083F804514DE0C29AC39B9A4268D002A8D2
:10596000FFF783FF8DF80400C0F307228DF80520B0
:10597000C0F307468DF806601746C0B20130C5B2C5
:105980000E2E11D806F1100304EB83035A6801238D
:10599000BB401A4208D106F1010804EB0713434447
:1059A00093F80431FF2BAFD08EB106F1FF3806F12A
:1059B0000F0304EB83035A680123BB401A4206D14C
:1059C00004EB0713434493F80431FF2BA9D00E2FA7
:1059D0000FD804EB87035A680123B3401A4208D159
:1059E00007F1010804EB0813334493F80431FF2B4B
:1059F000A4D0002FAFD007F1FF3804EB88035A681A
:105A00000123B3401A42A6D104EB0813334493F8A0
:105A10000431FF2B9FD133465FFA88F2294602A852
:105A2000FFF70FFF04EB0818464486F8045192E78D
:105A30000DF5447DBDE8F0812DE9F043ADF5457DE0
:105A4000064602A8FFF7ECFE002744E04FF00008EE
:105A50001DE04FF0000823463A46002102A8FFF758
:105A6000F0FE06EB05154D4485F804810134E4B2DF
:105A70000F2C2ED8A14604F1300306EB83035A689D
:105A80003D460123BB401A42E0D04FF0FF0844B12D
:105A900009F12F0206EB82025268134201D14FF046
:105AA000000805F1200306EB83035A68012303FA7B
:105AB00009F31A4201D14FF0000837B105F11F0276
:105AC00006EB820252681342C3D0B8F1000FC8D16E
:105AD000C1E70137FFB20F2F28D80024C8E75FFACB
